{
  "abi": [
    {
      "inputs": [
        {
          "internalType": "address",
          "name": "yieldToken_",
          "type": "address"
        }
      ],
      "stateMutability": "nonpayable",
      "type": "constructor"
    },
    {
      "inputs": [
        {
          "internalType": "address",
          "name": "owner",
          "type": "address"
        }
      ],
      "name": "OwnableInvalidOwner",
      "type": "error"
    },
    {
      "inputs": [
        {
          "internalType": "address",
          "name": "account",
          "type": "address"
        }
      ],
      "name": "OwnableUnauthorizedAccount",
      "type": "error"
    },
    {
      "anonymous": false,
      "inputs": [
        {
          "indexed": true,
          "internalType": "address",
          "name": "user",
          "type": "address"
        },
        {
          "indexed": false,
          "internalType": "uint256",
          "name": "amount",
          "type": "uint256"
        }
      ],
      "name": "Deposited",
      "type": "event"
    },
    {
      "anonymous": false,
      "inputs": [
        {
          "indexed": true,
          "internalType": "address",
          "name": "previousOwner",
          "type": "address"
        },
        {
          "indexed": true,
          "internalType": "address",
          "name": "newOwner",
          "type": "address"
        }
      ],
      "name": "OwnershipTransferred",
      "type": "event"
    },
    {
      "anonymous": false,
      "inputs": [
        {
          "indexed": true,
          "internalType": "address",
          "name": "user",
          "type": "address"
        },
        {
          "indexed": false,
          "internalType": "uint256",
          "name": "amount",
          "type": "uint256"
        }
      ],
      "name": "Withdrew",
      "type": "event"
    },
    {
      "anonymous": false,
      "inputs": [
        {
          "indexed": true,
          "internalType": "address",
          "name": "user",
          "type": "address"
        },
        {
          "indexed": false,
          "internalType": "uint256",
          "name": "amount",
          "type": "uint256"
        }
      ],
      "name": "YieldWithdrawn",
      "type": "event"
    },
    {
      "inputs": [
        {
          "internalType": "uint256",
          "name": "amount",
          "type": "uint256"
        }
      ],
      "name": "deposit",
      "outputs": [],
      "stateMutability": "nonpayable",
      "type": "function"
    },
    {
      "inputs": [],
      "name": "getDepositedAmount",
      "outputs": [
        {
          "internalType": "uint256",
          "name": "amount",
          "type": "uint256"
        }
      ],
      "stateMutability": "view",
      "type": "function"
    },
    {
      "inputs": [],
      "name": "getTotalAmount",
      "outputs": [
        {
          "internalType": "uint256",
          "name": "amount",
          "type": "uint256"
        }
      ],
      "stateMutability": "view",
      "type": "function"
    },
    {
      "inputs": [],
      "name": "getYieldAmount",
      "outputs": [
        {
          "internalType": "uint256",
          "name": "amount",
          "type": "uint256"
        }
      ],
      "stateMutability": "view",
      "type": "function"
    },
    {
      "inputs": [],
      "name": "owner",
      "outputs": [
        {
          "internalType": "address",
          "name": "",
          "type": "address"
        }
      ],
      "stateMutability": "view",
      "type": "function"
    },
    {
      "inputs": [],
      "name": "renounceOwnership",
      "outputs": [],
      "stateMutability": "nonpayable",
      "type": "function"
    },
    {
      "inputs": [],
      "name": "token",
      "outputs": [
        {
          "internalType": "address",
          "name": "",
          "type": "address"
        }
      ],
      "stateMutability": "view",
      "type": "function"
    },
    {
      "inputs": [
        {
          "internalType": "address",
          "name": "newOwner",
          "type": "address"
        }
      ],
      "name": "transferOwnership",
      "outputs": [],
      "stateMutability": "nonpayable",
      "type": "function"
    },
    {
      "inputs": [
        {
          "internalType": "uint256",
          "name": "amount",
          "type": "uint256"
        }
      ],
      "name": "withdraw",
      "outputs": [],
      "stateMutability": "nonpayable",
      "type": "function"
    },
    {
      "inputs": [
        {
          "internalType": "uint256",
          "name": "amount",
          "type": "uint256"
        }
      ],
      "name": "withdrawYield",
      "outputs": [],
      "stateMutability": "nonpayable",
      "type": "function"
    }
  ],
  "bytecode": {
    "object": "0x608060405234801561001057600080fd5b5060405161097d38038061097d83398101604081905261002f916100d4565b338061005557604051631e4fbdf760e01b81526000600482015260240160405180910390fd5b61005e81610084565b50600180546001600160a01b0319166001600160a01b0392909216919091179055610104565b600080546001600160a01b038381166001600160a01b0319831681178455604051919092169283917f8be0079c531659141344cd1fd0a4f28419497f9722a3daafe3b4186f6b6457e09190a35050565b6000602082840312156100e657600080fd5b81516001600160a01b03811681146100fd57600080fd5b9392505050565b61086a806101136000396000f3fe608060405234801561001057600080fd5b506004361061009e5760003560e01c80638da5cb5b116100665780638da5cb5b146100eb578063ab31978f14610110578063b6b55f2514610123578063f2fde38b14610136578063fc0c546a1461014957600080fd5b8063121a23c1146100a35780632e1a7d4d146100be578063322ba9f3146100d357806365ac4341146100db578063715018a6146100e3575b600080fd5b6100ab610151565b6040519081526020015b60405180910390f35b6100d16100cc366004610748565b610173565b005b6002546100ab565b6100ab610246565b6100d161031a565b6000546001600160a01b03165b6040516001600160a01b0390911681526020016100b5565b6100d161011e366004610748565b61032e565b6100d1610131366004610748565b61045b565b6100d1610144366004610776565b61061f565b6100f861065d565b600061015c60025490565b610164610246565b61016e91906107b0565b905090565b61017b6106cb565b600154604051632d182be560e21b8152600481018390523360248201523060448201526001600160a01b039091169063b460af94906064016020604051808303816000875af11580156101d2573d6000803e3d6000fd5b505050506040513d601f19601f820116820180604052508101906101f691906107c9565b50806002600082825461020991906107b0565b909155505060405181815233907fb244b9a17ad633c6e83b7983ee04320484956a68ddbe96a0b70dfca1cf19d7239060200160405180910390a250565b6001546040516370a0823160e01b81523060048201526000916001600160a01b0316906307a2d13a9082906370a0823190602401602060405180830381865afa158015610297573d6000803e3d6000fd5b505050506040513d601f19601f820116820180604052508101906102bb91906107c9565b6040518263ffffffff1660e01b81526004016102d991815260200190565b602060405180830381865afa1580156102f6573d6000803e3d6000fd5b505050506040513d601f19601f8201168201806040525081019061016e91906107c9565b6103226106cb565b61032c60006106f8565b565b6103366106cb565b6000610340610151565b9050808211156103a55760405162461bcd60e51b815260206004820152602560248201527f455243343632365969656c645661756c743a20696e73756666696369656e74206044820152641e5a595b1960da1b60648201526084015b60405180910390fd5b600154604051632d182be560e21b8152600481018490523360248201523060448201526001600160a01b039091169063b460af94906064016020604051808303816000875af11580156103fc573d6000803e3d6000fd5b505050506040513d601f19601f8201168201806040525081019061042091906107c9565b5060405182815233907faed495d70193dd915b96156dc90595c95aa5cc4f6985a2cd79286232d96ae8e2906020015b60405180910390a25050565b6104636106cb565b600061046d61065d565b6040516323b872dd60e01b8152336004820152306024820152604481018490529091506001600160a01b038216906323b872dd906064016020604051808303816000875af11580156104c3573d6000803e3d6000fd5b505050506040513d601f19601f820116820180604052508101906104e791906107e2565b5060015460405163095ea7b360e01b81526001600160a01b039182166004820152602481018490529082169063095ea7b3906044016020604051808303816000875af115801561053b573d6000803e3d6000fd5b505050506040513d601f19601f8201168201806040525081019061055f91906107e2565b50600154604051636e553f6560e01b8152600481018490523060248201526001600160a01b0390911690636e553f65906044016020604051808303816000875af11580156105b1573d6000803e3d6000fd5b505050506040513d601f19601f820116820180604052508101906105d591906107c9565b5081600260008282546105e89190610804565b909155505060405182815233907f2da466a7b24304f47e87fa2e1e5a81b9831ce54fec19055ce277ca2f39ba42c49060200161044f565b6106276106cb565b6001600160a01b03811661065157604051631e4fbdf760e01b81526000600482015260240161039c565b61065a816106f8565b50565b600154604080516338d52e0f60e01b815290516000926001600160a01b0316916338d52e0f9160048083019260209291908290030181865afa1580156106a7573d6000803e3d6000fd5b505050506040513d601f19601f8201168201806040525081019061016e9190610817565b6000546001600160a01b0316331461032c5760405163118cdaa760e01b815233600482015260240161039c565b600080546001600160a01b038381166001600160a01b0319831681178455604051919092169283917f8be0079c531659141344cd1fd0a4f28419497f9722a3daafe3b4186f6b6457e09190a35050565b60006020828403121561075a57600080fd5b5035919050565b6001600160a01b038116811461065a57600080fd5b60006020828403121561078857600080fd5b813561079381610761565b9392505050565b634e487b7160e01b600052601160045260246000fd5b818103818111156107c3576107c361079a565b92915050565b6000602082840312156107db57600080fd5b5051919050565b6000602082840312156107f457600080fd5b8151801515811461079357600080fd5b808201808211156107c3576107c361079a565b60006020828403121561082957600080fd5b81516107938161076156fea26469706673582212205e3e7c7049d839f1dca9fadae661c2ac72049b4cd3834e15e29ef7d50dd2be2a64736f6c63430008140033",
    "linkReferences": {}
  },
  "methodIdentifiers": {
    "deposit(uint256)": "b6b55f25",
    "getDepositedAmount()": "322ba9f3",
    "getTotalAmount()": "65ac4341",
    "getYieldAmount()": "121a23c1",
    "owner()": "8da5cb5b",
    "renounceOwnership()": "715018a6",
    "token()": "fc0c546a",
    "transferOwnership(address)": "f2fde38b",
    "withdraw(uint256)": "2e1a7d4d",
    "withdrawYield(uint256)": "ab31978f"
  },
  "id": 35
}