{
  "abi": [
    {
      "inputs": [],
      "stateMutability": "nonpayable",
      "type": "constructor"
    },
    {
      "inputs": [
        {
          "internalType": "address",
          "name": "owner",
          "type": "address"
        }
      ],
      "name": "OwnableInvalidOwner",
      "type": "error"
    },
    {
      "inputs": [
        {
          "internalType": "address",
          "name": "account",
          "type": "address"
        }
      ],
      "name": "OwnableUnauthorizedAccount",
      "type": "error"
    },
    {
      "anonymous": false,
      "inputs": [
        {
          "indexed": true,
          "internalType": "uint256",
          "name": "postId",
          "type": "uint256"
        },
        {
          "indexed": true,
          "internalType": "uint256",
          "name": "yieldVaultId",
          "type": "uint256"
        },
        {
          "indexed": false,
          "internalType": "uint256",
          "name": "oldAmount",
          "type": "uint256"
        },
        {
          "indexed": false,
          "internalType": "uint256",
          "name": "newAmount",
          "type": "uint256"
        }
      ],
      "name": "BoostAdjusted",
      "type": "event"
    },
    {
      "anonymous": false,
      "inputs": [
        {
          "indexed": true,
          "internalType": "address",
          "name": "previousOwner",
          "type": "address"
        },
        {
          "indexed": true,
          "internalType": "address",
          "name": "newOwner",
          "type": "address"
        }
      ],
      "name": "OwnershipTransferred",
      "type": "event"
    },
    {
      "anonymous": false,
      "inputs": [
        {
          "indexed": true,
          "internalType": "uint256",
          "name": "postId",
          "type": "uint256"
        },
        {
          "indexed": true,
          "internalType": "address",
          "name": "owner",
          "type": "address"
        },
        {
          "indexed": false,
          "internalType": "string",
          "name": "ipfsHash",
          "type": "string"
        }
      ],
      "name": "PostCreated",
      "type": "event"
    },
    {
      "anonymous": false,
      "inputs": [
        {
          "indexed": true,
          "internalType": "uint256",
          "name": "yieldVaultId",
          "type": "uint256"
        },
        {
          "indexed": true,
          "internalType": "address",
          "name": "beneficiary",
          "type": "address"
        },
        {
          "indexed": false,
          "internalType": "uint256",
          "name": "amount",
          "type": "uint256"
        }
      ],
      "name": "YieldClaimed",
      "type": "event"
    },
    {
      "anonymous": false,
      "inputs": [
        {
          "indexed": true,
          "internalType": "uint256",
          "name": "yieldVaultId",
          "type": "uint256"
        },
        {
          "indexed": true,
          "internalType": "address",
          "name": "yieldVault",
          "type": "address"
        }
      ],
      "name": "YieldVaultAdded",
      "type": "event"
    },
    {
      "anonymous": false,
      "inputs": [
        {
          "indexed": true,
          "internalType": "uint256",
          "name": "yieldVaultId",
          "type": "uint256"
        },
        {
          "indexed": false,
          "internalType": "bool",
          "name": "paused",
          "type": "bool"
        }
      ],
      "name": "YieldVaultPaused",
      "type": "event"
    },
    {
      "inputs": [
        {
          "internalType": "address",
          "name": "_yieldVault",
          "type": "address"
        }
      ],
      "name": "addYieldVault",
      "outputs": [
        {
          "internalType": "uint256",
          "name": "yieldVaultId",
          "type": "uint256"
        }
      ],
      "stateMutability": "nonpayable",
      "type": "function"
    },
    {
      "inputs": [
        {
          "internalType": "uint256",
          "name": "",
          "type": "uint256"
        },
        {
          "internalType": "uint256",
          "name": "",
          "type": "uint256"
        }
      ],
      "name": "boostScore",
      "outputs": [
        {
          "internalType": "uint256",
          "name": "",
          "type": "uint256"
        }
      ],
      "stateMutability": "view",
      "type": "function"
    },
    {
      "inputs": [
        {
          "internalType": "uint256[]",
          "name": "_yieldVaultIds",
          "type": "uint256[]"
        },
        {
          "internalType": "uint256[]",
          "name": "_amounts",
          "type": "uint256[]"
        }
      ],
      "name": "claimYields",
      "outputs": [],
      "stateMutability": "nonpayable",
      "type": "function"
    },
    {
      "inputs": [
        {
          "internalType": "string",
          "name": "_ipfsHash",
          "type": "string"
        },
        {
          "internalType": "uint256",
          "name": "_yieldVaultId",
          "type": "uint256"
        },
        {
          "internalType": "uint256",
          "name": "_amount",
          "type": "uint256"
        }
      ],
      "name": "createAndBoostPost",
      "outputs": [
        {
          "internalType": "uint256",
          "name": "postId",
          "type": "uint256"
        },
        {
          "internalType": "uint256",
          "name": "yieldVaultId",
          "type": "uint256"
        },
        {
          "internalType": "uint256",
          "name": "amount",
          "type": "uint256"
        }
      ],
      "stateMutability": "nonpayable",
      "type": "function"
    },
    {
      "inputs": [
        {
          "internalType": "string",
          "name": "ipfsHash",
          "type": "string"
        }
      ],
      "name": "createPost",
      "outputs": [
        {
          "internalType": "uint256",
          "name": "postId",
          "type": "uint256"
        }
      ],
      "stateMutability": "nonpayable",
      "type": "function"
    },
    {
      "inputs": [
        {
          "internalType": "uint256",
          "name": "_postId",
          "type": "uint256"
        },
        {
          "internalType": "uint256",
          "name": "_yieldVaultId",
          "type": "uint256"
        },
        {
          "internalType": "uint256",
          "name": "_amount",
          "type": "uint256"
        }
      ],
      "name": "depositBoost",
      "outputs": [
        {
          "internalType": "uint256",
          "name": "postId",
          "type": "uint256"
        },
        {
          "internalType": "uint256",
          "name": "yieldVaultId",
          "type": "uint256"
        },
        {
          "internalType": "uint256",
          "name": "amount",
          "type": "uint256"
        }
      ],
      "stateMutability": "nonpayable",
      "type": "function"
    },
    {
      "inputs": [
        {
          "internalType": "uint256",
          "name": "_yieldVaultId",
          "type": "uint256"
        }
      ],
      "name": "getClaimableYield",
      "outputs": [
        {
          "internalType": "uint256",
          "name": "amount",
          "type": "uint256"
        }
      ],
      "stateMutability": "view",
      "type": "function"
    },
    {
      "inputs": [],
      "name": "owner",
      "outputs": [
        {
          "internalType": "address",
          "name": "",
          "type": "address"
        }
      ],
      "stateMutability": "view",
      "type": "function"
    },
    {
      "inputs": [],
      "name": "postCount",
      "outputs": [
        {
          "internalType": "uint256",
          "name": "",
          "type": "uint256"
        }
      ],
      "stateMutability": "view",
      "type": "function"
    },
    {
      "inputs": [
        {
          "internalType": "uint256",
          "name": "",
          "type": "uint256"
        }
      ],
      "name": "postOwner",
      "outputs": [
        {
          "internalType": "address",
          "name": "",
          "type": "address"
        }
      ],
      "stateMutability": "view",
      "type": "function"
    },
    {
      "inputs": [],
      "name": "renounceOwnership",
      "outputs": [],
      "stateMutability": "nonpayable",
      "type": "function"
    },
    {
      "inputs": [
        {
          "internalType": "uint256",
          "name": "_yieldVaultId",
          "type": "uint256"
        },
        {
          "internalType": "bool",
          "name": "_paused",
          "type": "bool"
        }
      ],
      "name": "setPausePlatform",
      "outputs": [],
      "stateMutability": "nonpayable",
      "type": "function"
    },
    {
      "inputs": [
        {
          "internalType": "address",
          "name": "newOwner",
          "type": "address"
        }
      ],
      "name": "transferOwnership",
      "outputs": [],
      "stateMutability": "nonpayable",
      "type": "function"
    },
    {
      "inputs": [],
      "name": "vaultCount",
      "outputs": [
        {
          "internalType": "uint256",
          "name": "",
          "type": "uint256"
        }
      ],
      "stateMutability": "view",
      "type": "function"
    },
    {
      "inputs": [
        {
          "internalType": "uint256",
          "name": "_postId",
          "type": "uint256"
        },
        {
          "internalType": "uint256",
          "name": "_yieldVaultId",
          "type": "uint256"
        },
        {
          "internalType": "uint256",
          "name": "_amount",
          "type": "uint256"
        }
      ],
      "name": "withdrawBoost",
      "outputs": [
        {
          "internalType": "uint256",
          "name": "postId",
          "type": "uint256"
        },
        {
          "internalType": "uint256",
          "name": "yieldVaultId",
          "type": "uint256"
        },
        {
          "internalType": "uint256",
          "name": "amount",
          "type": "uint256"
        }
      ],
      "stateMutability": "nonpayable",
      "type": "function"
    },
    {
      "inputs": [
        {
          "internalType": "uint256",
          "name": "",
          "type": "uint256"
        }
      ],
      "name": "yieldVaultPaused",
      "outputs": [
        {
          "internalType": "bool",
          "name": "",
          "type": "bool"
        }
      ],
      "stateMutability": "view",
      "type": "function"
    },
    {
      "inputs": [
        {
          "internalType": "uint256",
          "name": "",
          "type": "uint256"
        }
      ],
      "name": "yieldVaults",
      "outputs": [
        {
          "internalType": "contract IYieldVault",
          "name": "",
          "type": "address"
        }
      ],
      "stateMutability": "view",
      "type": "function"
    }
  ],
  "bytecode": {
    "object": "0x608060405234801561001057600080fd5b50338061003757604051631e4fbdf760e01b81526000600482015260240160405180910390fd5b61004081610046565b50610096565b600080546001600160a01b038381166001600160a01b0319831681178455604051919092169283917f8be0079c531659141344cd1fd0a4f28419497f9722a3daafe3b4186f6b6457e09190a35050565b6111ee806100a56000396000f3fe608060405234801561001057600080fd5b506004361061010b5760003560e01c806388399c82116100a2578063c7303c6111610071578063c7303c6114610245578063cbb543bc14610258578063d077398a1461028b578063d6583c2d146102b4578063f2fde38b146102c757600080fd5b806388399c82146101db5780638da5cb5b146101ee578063a7c6a10014610213578063b140e4fe1461021c57600080fd5b806378a62f20116100de57806378a62f20146101775780637ca483201461018a5780637f758aea1461019d578063867d9203146101c857600080fd5b8063145657441461011057806317906c2e146101435780632a101c001461015a578063715018a61461016d575b600080fd5b61012361011e366004610daf565b6102da565b604080519384526020840192909252908201526060015b60405180910390f35b61014c60015481565b60405190815260200161013a565b61014c610168366004610df0565b6103c3565b6101756103dc565b005b610123610185366004610daf565b6103f0565b610123610198366004610ec4565b610472565b61014c6101ab366004610f12565b600360209081526000928352604080842090915290825290205481565b6101756101d6366004610fb4565b6104f0565b6101756101e9366004611026565b610506565b6000546001600160a01b03165b6040516001600160a01b03909116815260200161013a565b61014c60045481565b6101fb61022a366004611056565b6005602052600090815260409020546001600160a01b031681565b61014c61025336600461106f565b610510565b61027b610266366004611056565b60066020526000908152604090205460ff1681565b604051901515815260200161013a565b6101fb610299366004611056565b6002602052600090815260409020546001600160a01b031681565b61014c6102c2366004611056565b61051c565b6101756102d5366004610df0565b6105a5565b6000838152600260205260408120548190819086906001600160a01b031633146103465760405162461bcd60e51b815260206004820152601860248201527729b437baba32b91d1027b7363c903837b9ba1037bbb732b960411b60448201526064015b60405180910390fd5b600083815260066020526040902054839060ff16156103a75760405162461bcd60e51b815260206004820152601e60248201527f53686f757465723a205969656c64207661756c74206973207061757365640000604482015260640161033d565b6103b28888886105e3565b945094509450505093509350939050565b60006103cd61082e565b6103d68261085b565b92915050565b6103e461082e565b6103ee60006108d1565b565b6000838152600260205260408120548190819086906001600160a01b031633146104575760405162461bcd60e51b815260206004820152601860248201527729b437baba32b91d1027b7363c903837b9ba1037bbb732b960411b604482015260640161033d565b610462878787610921565b9350935093505093509350939050565b60008281526006602052604081205481908190859060ff16156104d75760405162461bcd60e51b815260206004820152601e60248201527f53686f757465723a205969656c64207661756c74206973207061757365640000604482015260640161033d565b60006104e33389610ae0565b90506103b28188886105e3565b6104f861082e565b6105028282610b69565b5050565b6105028282610bd5565b60006103d63383610ae0565b600061052661082e565b60008281526005602090815260409182902054825163121a23c160e01b815292516001600160a01b0390911692839263121a23c1926004808401938290030181865afa15801561057a573d6000803e3d6000fd5b505050506040513d601f19601f8201168201806040525081019061059e91906110ac565b9392505050565b6105ad61082e565b6001600160a01b0381166105d757604051631e4fbdf760e01b81526000600482015260240161033d565b6105e0816108d1565b50565b6000838152600360209081526040808320858452909152812054819081908161060c86836110db565b60008981526003602090815260408083208b8452825280832084905560058252808320548151637e062a3560e11b815291519495506001600160a01b031693849263fc0c546a92600480820193918290030181865afa158015610673573d6000803e3d6000fd5b505050506040513d601f19601f8201168201806040525081019061069791906110ee565b6040516323b872dd60e01b8152336004820152306024820152604481018a90529091506001600160a01b038216906323b872dd906064016020604051808303816000875af11580156106ed573d6000803e3d6000fd5b505050506040513d601f19601f82011682018060405250810190610711919061110b565b5060405163095ea7b360e01b81526001600160a01b038381166004830152602482018a905282169063095ea7b3906044016020604051808303816000875af1158015610761573d6000803e3d6000fd5b505050506040513d601f19601f82011682018060405250810190610785919061110b565b5060405163b6b55f2560e01b8152600481018990526001600160a01b0383169063b6b55f2590602401600060405180830381600087803b1580156107c857600080fd5b505af11580156107dc573d6000803e3d6000fd5b505060408051878152602081018790528c93508d92507f51f4e544ef517e508c97d76cd301d00472f0c77b029182dc3909f3df39a26a7c91015b60405180910390a35097989697509495945050505050565b6000546001600160a01b031633146103ee5760405163118cdaa760e01b815233600482015260240161033d565b600480546000918261086c83611128565b90915550506004805460009081526005602052604080822080546001600160a01b0319166001600160a01b0387169081179091559254905190917fd1ef552d8bb31c8515f549beeff0850da0b1b6e29382a17ffd440b04160d1ace91a3505060045490565b600080546001600160a01b038381166001600160a01b0319831681178455604051919092169283917f8be0079c531659141344cd1fd0a4f28419497f9722a3daafe3b4186f6b6457e09190a35050565b6000838152600360209081526040808320858452909152812054819081908161094a8683611141565b60008981526003602090815260408083208b84528252808320849055600590915290819020549051632e1a7d4d60e01b8152600481018990529192506001600160a01b0316908190632e1a7d4d90602401600060405180830381600087803b1580156109b557600080fd5b505af11580156109c9573d6000803e3d6000fd5b505050506000816001600160a01b031663fc0c546a6040518163ffffffff1660e01b8152600401602060405180830381865afa158015610a0d573d6000803e3d6000fd5b505050506040513d601f19601f82011682018060405250810190610a3191906110ee565b60405163a9059cbb60e01b8152336004820152602481018a90529091506001600160a01b0382169063a9059cbb906044016020604051808303816000875af1158015610a81573d6000803e3d6000fd5b505050506040513d601f19601f82011682018060405250810190610aa5919061110b565b5060408051858152602081018590528a918c917f51f4e544ef517e508c97d76cd301d00472f0c77b029182dc3909f3df39a26a7c9101610816565b6001805460009182610af183611128565b9091555050600180546000908152600260205260409081902080546001600160a01b0319166001600160a01b038716908117909155915490517f8e40a51278abe2f4b410c0a96ff0bdd024b22666ca334062bf72afd596984bd690610b57908690611154565b60405180910390a35060015492915050565b60005b8251811015610bd0576000838281518110610b8957610b896111a2565b602002602001015190506000838381518110610ba757610ba76111a2565b60200260200101519050610bbb8282610c2c565b50508080610bc890611128565b915050610b6c565b505050565b600082815260066020908152604091829020805460ff1916841515908117909155915191825283917f2f3b06a28c1c23fb095d86dfd5b3d2c52f10a18bc1bff7c2acdf730a0b4ed0e0910160405180910390a25050565b6000828152600560205260409081902054905163ab31978f60e01b8152600481018390526001600160a01b0390911690819063ab31978f90602401600060405180830381600087803b158015610c8157600080fd5b505af1158015610c95573d6000803e3d6000fd5b505050506000816001600160a01b031663fc0c546a6040518163ffffffff1660e01b8152600401602060405180830381865afa158015610cd9573d6000803e3d6000fd5b505050506040513d601f19601f82011682018060405250810190610cfd91906110ee565b60405163a9059cbb60e01b8152336004820152602481018590529091506001600160a01b0382169063a9059cbb906044016020604051808303816000875af1158015610d4d573d6000803e3d6000fd5b505050506040513d601f19601f82011682018060405250810190610d71919061110b565b50604051838152339085907f1448cb68839238fd008abe5bad73d996f9849e020313466fa9f3476d98006df29060200160405180910390a350505050565b600080600060608486031215610dc457600080fd5b505081359360208301359350604090920135919050565b6001600160a01b03811681146105e057600080fd5b600060208284031215610e0257600080fd5b813561059e81610ddb565b634e487b7160e01b600052604160045260246000fd5b604051601f8201601f1916810167ffffffffffffffff81118282101715610e4c57610e4c610e0d565b604052919050565b600082601f830112610e6557600080fd5b813567ffffffffffffffff811115610e7f57610e7f610e0d565b610e92601f8201601f1916602001610e23565b818152846020838601011115610ea757600080fd5b816020850160208301376000918101602001919091529392505050565b600080600060608486031215610ed957600080fd5b833567ffffffffffffffff811115610ef057600080fd5b610efc86828701610e54565b9660208601359650604090950135949350505050565b60008060408385031215610f2557600080fd5b50508035926020909101359150565b600082601f830112610f4557600080fd5b8135602067ffffffffffffffff821115610f6157610f61610e0d565b8160051b610f70828201610e23565b9283528481018201928281019087851115610f8a57600080fd5b83870192505b84831015610fa957823582529183019190830190610f90565b979650505050505050565b60008060408385031215610fc757600080fd5b823567ffffffffffffffff80821115610fdf57600080fd5b610feb86838701610f34565b9350602085013591508082111561100157600080fd5b5061100e85828601610f34565b9150509250929050565b80151581146105e057600080fd5b6000806040838503121561103957600080fd5b82359150602083013561104b81611018565b809150509250929050565b60006020828403121561106857600080fd5b5035919050565b60006020828403121561108157600080fd5b813567ffffffffffffffff81111561109857600080fd5b6110a484828501610e54565b949350505050565b6000602082840312156110be57600080fd5b5051919050565b634e487b7160e01b600052601160045260246000fd5b808201808211156103d6576103d66110c5565b60006020828403121561110057600080fd5b815161059e81610ddb565b60006020828403121561111d57600080fd5b815161059e81611018565b60006001820161113a5761113a6110c5565b5060010190565b818103818111156103d6576103d66110c5565b600060208083528351808285015260005b8181101561118157858101830151858201604001528201611165565b506000604082860101526040601f19601f8301168501019250505092915050565b634e487b7160e01b600052603260045260246000fdfea2646970667358221220f8a756535f8bc2cb03274302723344eb9e0f938a6c28dcab35db60154aac8d2164736f6c63430008140033",
    "linkReferences": {}
  },
  "methodIdentifiers": {
    "addYieldVault(address)": "2a101c00",
    "boostScore(uint256,uint256)": "7f758aea",
    "claimYields(uint256[],uint256[])": "867d9203",
    "createAndBoostPost(string,uint256,uint256)": "7ca48320",
    "createPost(string)": "c7303c61",
    "depositBoost(uint256,uint256,uint256)": "14565744",
    "getClaimableYield(uint256)": "d6583c2d",
    "owner()": "8da5cb5b",
    "postCount()": "17906c2e",
    "postOwner(uint256)": "d077398a",
    "renounceOwnership()": "715018a6",
    "setPausePlatform(uint256,bool)": "88399c82",
    "transferOwnership(address)": "f2fde38b",
    "vaultCount()": "a7c6a100",
    "withdrawBoost(uint256,uint256,uint256)": "78a62f20",
    "yieldVaultPaused(uint256)": "cbb543bc",
    "yieldVaults(uint256)": "b140e4fe"
  },
  "id": 32
}