{
  "abi": [
    {
      "inputs": [
        {
          "internalType": "address",
          "name": "asset_",
          "type": "address"
        }
      ],
      "stateMutability": "nonpayable",
      "type": "constructor"
    },
    {
      "inputs": [
        {
          "internalType": "address",
          "name": "target",
          "type": "address"
        }
      ],
      "name": "AddressEmptyCode",
      "type": "error"
    },
    {
      "inputs": [
        {
          "internalType": "address",
          "name": "account",
          "type": "address"
        }
      ],
      "name": "AddressInsufficientBalance",
      "type": "error"
    },
    {
      "inputs": [
        {
          "internalType": "address",
          "name": "spender",
          "type": "address"
        },
        {
          "internalType": "uint256",
          "name": "allowance",
          "type": "uint256"
        },
        {
          "internalType": "uint256",
          "name": "needed",
          "type": "uint256"
        }
      ],
      "name": "ERC20InsufficientAllowance",
      "type": "error"
    },
    {
      "inputs": [
        {
          "internalType": "address",
          "name": "sender",
          "type": "address"
        },
        {
          "internalType": "uint256",
          "name": "balance",
          "type": "uint256"
        },
        {
          "internalType": "uint256",
          "name": "needed",
          "type": "uint256"
        }
      ],
      "name": "ERC20InsufficientBalance",
      "type": "error"
    },
    {
      "inputs": [
        {
          "internalType": "address",
          "name": "approver",
          "type": "address"
        }
      ],
      "name": "ERC20InvalidApprover",
      "type": "error"
    },
    {
      "inputs": [
        {
          "internalType": "address",
          "name": "receiver",
          "type": "address"
        }
      ],
      "name": "ERC20InvalidReceiver",
      "type": "error"
    },
    {
      "inputs": [
        {
          "internalType": "address",
          "name": "sender",
          "type": "address"
        }
      ],
      "name": "ERC20InvalidSender",
      "type": "error"
    },
    {
      "inputs": [
        {
          "internalType": "address",
          "name": "spender",
          "type": "address"
        }
      ],
      "name": "ERC20InvalidSpender",
      "type": "error"
    },
    {
      "inputs": [
        {
          "internalType": "address",
          "name": "receiver",
          "type": "address"
        },
        {
          "internalType": "uint256",
          "name": "assets",
          "type": "uint256"
        },
        {
          "internalType": "uint256",
          "name": "max",
          "type": "uint256"
        }
      ],
      "name": "ERC4626ExceededMaxDeposit",
      "type": "error"
    },
    {
      "inputs": [
        {
          "internalType": "address",
          "name": "receiver",
          "type": "address"
        },
        {
          "internalType": "uint256",
          "name": "shares",
          "type": "uint256"
        },
        {
          "internalType": "uint256",
          "name": "max",
          "type": "uint256"
        }
      ],
      "name": "ERC4626ExceededMaxMint",
      "type": "error"
    },
    {
      "inputs": [
        {
          "internalType": "address",
          "name": "owner",
          "type": "address"
        },
        {
          "internalType": "uint256",
          "name": "shares",
          "type": "uint256"
        },
        {
          "internalType": "uint256",
          "name": "max",
          "type": "uint256"
        }
      ],
      "name": "ERC4626ExceededMaxRedeem",
      "type": "error"
    },
    {
      "inputs": [
        {
          "internalType": "address",
          "name": "owner",
          "type": "address"
        },
        {
          "internalType": "uint256",
          "name": "assets",
          "type": "uint256"
        },
        {
          "internalType": "uint256",
          "name": "max",
          "type": "uint256"
        }
      ],
      "name": "ERC4626ExceededMaxWithdraw",
      "type": "error"
    },
    {
      "inputs": [],
      "name": "FailedInnerCall",
      "type": "error"
    },
    {
      "inputs": [],
      "name": "MathOverflowedMulDiv",
      "type": "error"
    },
    {
      "inputs": [
        {
          "internalType": "address",
          "name": "token",
          "type": "address"
        }
      ],
      "name": "SafeERC20FailedOperation",
      "type": "error"
    },
    {
      "anonymous": false,
      "inputs": [
        {
          "indexed": true,
          "internalType": "address",
          "name": "owner",
          "type": "address"
        },
        {
          "indexed": true,
          "internalType": "address",
          "name": "spender",
          "type": "address"
        },
        {
          "indexed": false,
          "internalType": "uint256",
          "name": "value",
          "type": "uint256"
        }
      ],
      "name": "Approval",
      "type": "event"
    },
    {
      "anonymous": false,
      "inputs": [
        {
          "indexed": true,
          "internalType": "address",
          "name": "sender",
          "type": "address"
        },
        {
          "indexed": true,
          "internalType": "address",
          "name": "owner",
          "type": "address"
        },
        {
          "indexed": false,
          "internalType": "uint256",
          "name": "assets",
          "type": "uint256"
        },
        {
          "indexed": false,
          "internalType": "uint256",
          "name": "shares",
          "type": "uint256"
        }
      ],
      "name": "Deposit",
      "type": "event"
    },
    {
      "anonymous": false,
      "inputs": [
        {
          "indexed": true,
          "internalType": "address",
          "name": "from",
          "type": "address"
        },
        {
          "indexed": true,
          "internalType": "address",
          "name": "to",
          "type": "address"
        },
        {
          "indexed": false,
          "internalType": "uint256",
          "name": "value",
          "type": "uint256"
        }
      ],
      "name": "Transfer",
      "type": "event"
    },
    {
      "anonymous": false,
      "inputs": [
        {
          "indexed": true,
          "internalType": "address",
          "name": "sender",
          "type": "address"
        },
        {
          "indexed": true,
          "internalType": "address",
          "name": "receiver",
          "type": "address"
        },
        {
          "indexed": true,
          "internalType": "address",
          "name": "owner",
          "type": "address"
        },
        {
          "indexed": false,
          "internalType": "uint256",
          "name": "assets",
          "type": "uint256"
        },
        {
          "indexed": false,
          "internalType": "uint256",
          "name": "shares",
          "type": "uint256"
        }
      ],
      "name": "Withdraw",
      "type": "event"
    },
    {
      "inputs": [
        {
          "internalType": "address",
          "name": "owner",
          "type": "address"
        },
        {
          "internalType": "address",
          "name": "spender",
          "type": "address"
        }
      ],
      "name": "allowance",
      "outputs": [
        {
          "internalType": "uint256",
          "name": "",
          "type": "uint256"
        }
      ],
      "stateMutability": "view",
      "type": "function"
    },
    {
      "inputs": [
        {
          "internalType": "address",
          "name": "spender",
          "type": "address"
        },
        {
          "internalType": "uint256",
          "name": "value",
          "type": "uint256"
        }
      ],
      "name": "approve",
      "outputs": [
        {
          "internalType": "bool",
          "name": "",
          "type": "bool"
        }
      ],
      "stateMutability": "nonpayable",
      "type": "function"
    },
    {
      "inputs": [],
      "name": "asset",
      "outputs": [
        {
          "internalType": "address",
          "name": "",
          "type": "address"
        }
      ],
      "stateMutability": "view",
      "type": "function"
    },
    {
      "inputs": [
        {
          "internalType": "address",
          "name": "account",
          "type": "address"
        }
      ],
      "name": "balanceOf",
      "outputs": [
        {
          "internalType": "uint256",
          "name": "",
          "type": "uint256"
        }
      ],
      "stateMutability": "view",
      "type": "function"
    },
    {
      "inputs": [
        {
          "internalType": "uint256",
          "name": "shares",
          "type": "uint256"
        }
      ],
      "name": "convertToAssets",
      "outputs": [
        {
          "internalType": "uint256",
          "name": "",
          "type": "uint256"
        }
      ],
      "stateMutability": "view",
      "type": "function"
    },
    {
      "inputs": [
        {
          "internalType": "uint256",
          "name": "assets",
          "type": "uint256"
        }
      ],
      "name": "convertToShares",
      "outputs": [
        {
          "internalType": "uint256",
          "name": "",
          "type": "uint256"
        }
      ],
      "stateMutability": "view",
      "type": "function"
    },
    {
      "inputs": [],
      "name": "decimals",
      "outputs": [
        {
          "internalType": "uint8",
          "name": "",
          "type": "uint8"
        }
      ],
      "stateMutability": "view",
      "type": "function"
    },
    {
      "inputs": [
        {
          "internalType": "uint256",
          "name": "assets",
          "type": "uint256"
        },
        {
          "internalType": "address",
          "name": "receiver",
          "type": "address"
        }
      ],
      "name": "deposit",
      "outputs": [
        {
          "internalType": "uint256",
          "name": "",
          "type": "uint256"
        }
      ],
      "stateMutability": "nonpayable",
      "type": "function"
    },
    {
      "inputs": [
        {
          "internalType": "address",
          "name": "",
          "type": "address"
        }
      ],
      "name": "maxDeposit",
      "outputs": [
        {
          "internalType": "uint256",
          "name": "",
          "type": "uint256"
        }
      ],
      "stateMutability": "view",
      "type": "function"
    },
    {
      "inputs": [
        {
          "internalType": "address",
          "name": "",
          "type": "address"
        }
      ],
      "name": "maxMint",
      "outputs": [
        {
          "internalType": "uint256",
          "name": "",
          "type": "uint256"
        }
      ],
      "stateMutability": "view",
      "type": "function"
    },
    {
      "inputs": [
        {
          "internalType": "address",
          "name": "owner",
          "type": "address"
        }
      ],
      "name": "maxRedeem",
      "outputs": [
        {
          "internalType": "uint256",
          "name": "",
          "type": "uint256"
        }
      ],
      "stateMutability": "view",
      "type": "function"
    },
    {
      "inputs": [
        {
          "internalType": "address",
          "name": "owner",
          "type": "address"
        }
      ],
      "name": "maxWithdraw",
      "outputs": [
        {
          "internalType": "uint256",
          "name": "",
          "type": "uint256"
        }
      ],
      "stateMutability": "view",
      "type": "function"
    },
    {
      "inputs": [
        {
          "internalType": "uint256",
          "name": "shares",
          "type": "uint256"
        },
        {
          "internalType": "address",
          "name": "receiver",
          "type": "address"
        }
      ],
      "name": "mint",
      "outputs": [
        {
          "internalType": "uint256",
          "name": "",
          "type": "uint256"
        }
      ],
      "stateMutability": "nonpayable",
      "type": "function"
    },
    {
      "inputs": [],
      "name": "name",
      "outputs": [
        {
          "internalType": "string",
          "name": "",
          "type": "string"
        }
      ],
      "stateMutability": "view",
      "type": "function"
    },
    {
      "inputs": [
        {
          "internalType": "uint256",
          "name": "assets",
          "type": "uint256"
        }
      ],
      "name": "previewDeposit",
      "outputs": [
        {
          "internalType": "uint256",
          "name": "",
          "type": "uint256"
        }
      ],
      "stateMutability": "view",
      "type": "function"
    },
    {
      "inputs": [
        {
          "internalType": "uint256",
          "name": "shares",
          "type": "uint256"
        }
      ],
      "name": "previewMint",
      "outputs": [
        {
          "internalType": "uint256",
          "name": "",
          "type": "uint256"
        }
      ],
      "stateMutability": "view",
      "type": "function"
    },
    {
      "inputs": [
        {
          "internalType": "uint256",
          "name": "shares",
          "type": "uint256"
        }
      ],
      "name": "previewRedeem",
      "outputs": [
        {
          "internalType": "uint256",
          "name": "",
          "type": "uint256"
        }
      ],
      "stateMutability": "view",
      "type": "function"
    },
    {
      "inputs": [
        {
          "internalType": "uint256",
          "name": "assets",
          "type": "uint256"
        }
      ],
      "name": "previewWithdraw",
      "outputs": [
        {
          "internalType": "uint256",
          "name": "",
          "type": "uint256"
        }
      ],
      "stateMutability": "view",
      "type": "function"
    },
    {
      "inputs": [
        {
          "internalType": "uint256",
          "name": "shares",
          "type": "uint256"
        },
        {
          "internalType": "address",
          "name": "receiver",
          "type": "address"
        },
        {
          "internalType": "address",
          "name": "owner",
          "type": "address"
        }
      ],
      "name": "redeem",
      "outputs": [
        {
          "internalType": "uint256",
          "name": "",
          "type": "uint256"
        }
      ],
      "stateMutability": "nonpayable",
      "type": "function"
    },
    {
      "inputs": [],
      "name": "symbol",
      "outputs": [
        {
          "internalType": "string",
          "name": "",
          "type": "string"
        }
      ],
      "stateMutability": "view",
      "type": "function"
    },
    {
      "inputs": [],
      "name": "totalAssets",
      "outputs": [
        {
          "internalType": "uint256",
          "name": "",
          "type": "uint256"
        }
      ],
      "stateMutability": "view",
      "type": "function"
    },
    {
      "inputs": [],
      "name": "totalSupply",
      "outputs": [
        {
          "internalType": "uint256",
          "name": "",
          "type": "uint256"
        }
      ],
      "stateMutability": "view",
      "type": "function"
    },
    {
      "inputs": [
        {
          "internalType": "address",
          "name": "to",
          "type": "address"
        },
        {
          "internalType": "uint256",
          "name": "value",
          "type": "uint256"
        }
      ],
      "name": "transfer",
      "outputs": [
        {
          "internalType": "bool",
          "name": "",
          "type": "bool"
        }
      ],
      "stateMutability": "nonpayable",
      "type": "function"
    },
    {
      "inputs": [
        {
          "internalType": "address",
          "name": "from",
          "type": "address"
        },
        {
          "internalType": "address",
          "name": "to",
          "type": "address"
        },
        {
          "internalType": "uint256",
          "name": "value",
          "type": "uint256"
        }
      ],
      "name": "transferFrom",
      "outputs": [
        {
          "internalType": "bool",
          "name": "",
          "type": "bool"
        }
      ],
      "stateMutability": "nonpayable",
      "type": "function"
    },
    {
      "inputs": [
        {
          "internalType": "uint256",
          "name": "assets",
          "type": "uint256"
        },
        {
          "internalType": "address",
          "name": "receiver",
          "type": "address"
        },
        {
          "internalType": "address",
          "name": "owner",
          "type": "address"
        }
      ],
      "name": "withdraw",
      "outputs": [
        {
          "internalType": "uint256",
          "name": "",
          "type": "uint256"
        }
      ],
      "stateMutability": "nonpayable",
      "type": "function"
    }
  ],
  "bytecode": {
    "object": "0x60c06040523480156200001157600080fd5b50604051620016c2380380620016c28339810160408190526200003491620001c3565b806040518060400160405280600e81526020016d2a32b9ba2cb4b2b6322a37b5b2b760911b8152506040518060400160405280600381526020016215165560ea1b81525081600390816200008991906200029a565b5060046200009882826200029a565b505050600080620000af83620000de60201b60201c565b9150915081620000c1576012620000c3565b805b60ff1660a05250506001600160a01b031660805250620003b1565b60408051600481526024810182526020810180516001600160e01b031663313ce56760e01b17905290516000918291829182916001600160a01b03871691620001279162000366565b600060405180830381855afa9150503d806000811462000164576040519150601f19603f3d011682016040523d82523d6000602084013e62000169565b606091505b50915091508180156200017e57506020815110155b15620001b6576000818060200190518101906200019c919062000397565b905060ff8111620001b4576001969095509350505050565b505b5060009485945092505050565b600060208284031215620001d657600080fd5b81516001600160a01b0381168114620001ee57600080fd5b9392505050565b634e487b7160e01b600052604160045260246000fd5b600181811c908216806200022057607f821691505b6020821081036200024157634e487b7160e01b600052602260045260246000fd5b50919050565b601f8211156200029557600081815260208120601f850160051c81016020861015620002705750805b601f850160051c820191505b8181101562000291578281556001016200027c565b5050505b505050565b81516001600160401b03811115620002b657620002b6620001f5565b620002ce81620002c784546200020b565b8462000247565b602080601f831160018114620003065760008415620002ed5750858301515b600019600386901b1c1916600185901b17855562000291565b600085815260208120601f198616915b82811015620003375788860151825594840194600190910190840162000316565b5085821015620003565787850151600019600388901b60f8161c191681555b5050505050600190811b01905550565b6000825160005b818110156200038957602081860181015185830152016200036d565b506000920191825250919050565b600060208284031215620003aa57600080fd5b5051919050565b60805160a0516112d6620003ec600039600061050f0152600081816102330152818161039f015281816107f001526108b001526112d66000f3fe608060405234801561001057600080fd5b50600436106101735760003560e01c806370a08231116100de578063ba08765211610097578063ce96cb7711610071578063ce96cb7714610328578063d905777e1461033b578063dd62ed3e1461034e578063ef8b30f71461031557600080fd5b8063ba08765214610302578063c63d75b61461025d578063c6e6f5921461031557600080fd5b806370a082311461028557806394bf804d146102ae57806395d89b41146102c1578063a9059cbb146102c9578063b3d7f6b9146102dc578063b460af94146102ef57600080fd5b806323b872dd1161013057806323b872dd146101f9578063313ce5671461020c57806338d52e0f14610226578063402d267d1461025d5780634cdad506146101a85780636e553f651461027257600080fd5b806301e1d1141461017857806306fdde031461019357806307a2d13a146101a8578063095ea7b3146101bb5780630a28a477146101de57806318160ddd146101f1575b600080fd5b610180610387565b6040519081526020015b60405180910390f35b61019b610417565b60405161018a9190610ee2565b6101806101b6366004610f15565b6104a9565b6101ce6101c9366004610f4a565b6104bc565b604051901515815260200161018a565b6101806101ec366004610f15565b6104d4565b600254610180565b6101ce610207366004610f74565b6104e1565b610214610507565b60405160ff909116815260200161018a565b6040516001600160a01b037f000000000000000000000000000000000000000000000000000000000000000016815260200161018a565b61018061026b366004610fb0565b5060001990565b610180610280366004610fcb565b610533565b610180610293366004610fb0565b6001600160a01b031660009081526020819052604090205490565b6101806102bc366004610fcb565b610567565b61019b610585565b6101ce6102d7366004610f4a565b610594565b6101806102ea366004610f15565b6105a2565b6101806102fd366004610ff7565b6105af565b610180610310366004610ff7565b610607565b610180610323366004610f15565b610656565b610180610336366004610fb0565b610663565b610180610349366004610fb0565b610687565b61018061035c366004611033565b6001600160a01b03918216600090815260016020908152604080832093909416825291909152205490565b6040516370a0823160e01b81523060048201526000907f00000000000000000000000000000000000000000000000000000000000000006001600160a01b0316906370a0823190602401602060405180830381865afa1580156103ee573d6000803e3d6000fd5b505050506040513d601f19601f82011682018060405250810190610412919061105d565b905090565b60606003805461042690611076565b80601f016020809104026020016040519081016040528092919081815260200182805461045290611076565b801561049f5780601f106104745761010080835404028352916020019161049f565b820191906000526020600020905b81548152906001019060200180831161048257829003601f168201915b5050505050905090565b60006104b68260006106a5565b92915050565b6000336104ca8185856106df565b5060019392505050565b60006104b68260016106f1565b6000336104ef858285610721565b6104fa85858561078c565b60019150505b9392505050565b6000610412817f00000000000000000000000000000000000000000000000000000000000000006110c6565b6000600019610546565b60405180910390fd5b600061055185610656565b905061055f338587846107eb565b949350505050565b60006000196000610577856105a2565b905061055f338583886107eb565b60606004805461042690611076565b6000336104ca81858561078c565b60006104b68260016106a5565b6000806105bb83610663565b9050808511156105e457828582604051633fa733bb60e21b815260040161053d939291906110df565b60006105ef866104d4565b90506105fe338686898561087d565b95945050505050565b60008061061383610687565b90508085111561063c57828582604051632e52afbb60e21b815260040161053d939291906110df565b6000610647866104a9565b90506105fe338686848a61087d565b60006104b68260006106f1565b6001600160a01b0381166000908152602081905260408120546104b69060006106a5565b6001600160a01b0381166000908152602081905260408120546104b6565b60006105006106b2610387565b6106bd906001611100565b6106c96000600a6111f7565b6002546106d69190611100565b8591908561093d565b6106ec838383600161098c565b505050565b600061050061070182600a6111f7565b60025461070e9190611100565b610716610387565b6106d6906001611100565b6001600160a01b038381166000908152600160209081526040808320938616835292905220546000198114610786578181101561077757828183604051637dc7a0d960e11b815260040161053d939291906110df565b6107868484848403600061098c565b50505050565b6001600160a01b0383166107b657604051634b637e8f60e11b81526000600482015260240161053d565b6001600160a01b0382166107e05760405163ec442f0560e01b81526000600482015260240161053d565b6106ec838383610a53565b6108177f0000000000000000000000000000000000000000000000000000000000000000853085610b6a565b6108218382610bd1565b826001600160a01b0316846001600160a01b03167fdcbc1c05240f31ff3ad067ef1ee35ce4997762752e3a095284754544f4c709d7848460405161086f929190918252602082015260400190565b60405180910390a350505050565b826001600160a01b0316856001600160a01b0316146108a1576108a1838683610721565b6108ab8382610c0b565b6108d67f00000000000000000000000000000000000000000000000000000000000000008584610c41565b826001600160a01b0316846001600160a01b0316866001600160a01b03167ffbde797d201c681b91056529119e0b02407c7bb96a4a2c75c01fc9667232c8db858560405161092e929190918252602082015260400190565b60405180910390a45050505050565b60008061094b868686610c72565b905061095683610d36565b801561097257506000848061096d5761096d611206565b868809115b156105fe57610982600182611100565b9695505050505050565b6001600160a01b0384166109b65760405163e602df0560e01b81526000600482015260240161053d565b6001600160a01b0383166109e057604051634a1406b160e11b81526000600482015260240161053d565b6001600160a01b038085166000908152600160209081526040808320938716835292905220829055801561078657826001600160a01b0316846001600160a01b03167f8c5be1e5ebec7d5bd14f71427d1e84f3dd0314c0f7b2291e5b200ac8c7c3b9258460405161086f91815260200190565b6001600160a01b038316610a7e578060026000828254610a739190611100565b90915550610add9050565b6001600160a01b03831660009081526020819052604090205481811015610abe5783818360405163391434e360e21b815260040161053d939291906110df565b6001600160a01b03841660009081526020819052604090209082900390555b6001600160a01b038216610af957600280548290039055610b18565b6001600160a01b03821660009081526020819052604090208054820190555b816001600160a01b0316836001600160a01b03167fddf252ad1be2c89b69c2b068fc378daa952ba7f163c4a11628f55a4df523b3ef83604051610b5d91815260200190565b60405180910390a3505050565b6040516001600160a01b0384811660248301528381166044830152606482018390526107869186918216906323b872dd906084015b604051602081830303815290604052915060e01b6020820180516001600160e01b038381831617835250505050610d63565b6001600160a01b038216610bfb5760405163ec442f0560e01b81526000600482015260240161053d565b610c0760008383610a53565b5050565b6001600160a01b038216610c3557604051634b637e8f60e11b81526000600482015260240161053d565b610c0782600083610a53565b6040516001600160a01b038381166024830152604482018390526106ec91859182169063a9059cbb90606401610b9f565b6000838302816000198587098281108382030391505080600003610ca957838281610c9f57610c9f611206565b0492505050610500565b808411610cc95760405163227bc15360e01b815260040160405180910390fd5b6000848688096000868103871696879004966002600389028118808a02820302808a02820302808a02820302808a02820302808a02820302808a02909103029181900381900460010186841190950394909402919094039290920491909117919091029150509392505050565b60006002826003811115610d4c57610d4c61121c565b610d569190611232565b60ff166001149050919050565b6000610d786001600160a01b03841683610dc6565b90508051600014158015610d9d575080806020019051810190610d9b9190611262565b155b156106ec57604051635274afe760e01b81526001600160a01b038416600482015260240161053d565b60606105008383600084600080856001600160a01b03168486604051610dec9190611284565b60006040518083038185875af1925050503d8060008114610e29576040519150601f19603f3d011682016040523d82523d6000602084013e610e2e565b606091505b5091509150610982868383606082610e4e57610e4982610e95565b610500565b8151158015610e6557506001600160a01b0384163b155b15610e8e57604051639996b31560e01b81526001600160a01b038516600482015260240161053d565b5080610500565b805115610ea55780518082602001fd5b604051630a12f52160e11b815260040160405180910390fd5b60005b83811015610ed9578181015183820152602001610ec1565b50506000910152565b6020815260008251806020840152610f01816040850160208701610ebe565b601f01601f19169190910160400192915050565b600060208284031215610f2757600080fd5b5035919050565b80356001600160a01b0381168114610f4557600080fd5b919050565b60008060408385031215610f5d57600080fd5b610f6683610f2e565b946020939093013593505050565b600080600060608486031215610f8957600080fd5b610f9284610f2e565b9250610fa060208501610f2e565b9150604084013590509250925092565b600060208284031215610fc257600080fd5b61050082610f2e565b60008060408385031215610fde57600080fd5b82359150610fee60208401610f2e565b90509250929050565b60008060006060848603121561100c57600080fd5b8335925061101c60208501610f2e565b915061102a60408501610f2e565b90509250925092565b6000806040838503121561104657600080fd5b61104f83610f2e565b9150610fee60208401610f2e565b60006020828403121561106f57600080fd5b5051919050565b600181811c9082168061108a57607f821691505b6020821081036110aa57634e487b7160e01b600052602260045260246000fd5b50919050565b634e487b7160e01b600052601160045260246000fd5b60ff81811683821601908111156104b6576104b66110b0565b6001600160a01b039390931683526020830191909152604082015260600190565b808201808211156104b6576104b66110b0565b600181815b8085111561114e578160001904821115611134576111346110b0565b8085161561114157918102915b93841c9390800290611118565b509250929050565b600082611165575060016104b6565b81611172575060006104b6565b81600181146111885760028114611192576111ae565b60019150506104b6565b60ff8411156111a3576111a36110b0565b50506001821b6104b6565b5060208310610133831016604e8410600b84101617156111d1575081810a6104b6565b6111db8383611113565b80600019048211156111ef576111ef6110b0565b029392505050565b600061050060ff841683611156565b634e487b7160e01b600052601260045260246000fd5b634e487b7160e01b600052602160045260246000fd5b600060ff83168061125357634e487b7160e01b600052601260045260246000fd5b8060ff84160691505092915050565b60006020828403121561127457600080fd5b8151801515811461050057600080fd5b60008251611296818460208701610ebe565b919091019291505056fea264697066735822122023e39cf118d724cb8667d10761252a20ad352f81a1b58d1cea49ac253d9f844664736f6c63430008140033",
    "linkReferences": {}
  },
  "methodIdentifiers": {
    "allowance(address,address)": "dd62ed3e",
    "approve(address,uint256)": "095ea7b3",
    "asset()": "38d52e0f",
    "balanceOf(address)": "70a08231",
    "convertToAssets(uint256)": "07a2d13a",
    "convertToShares(uint256)": "c6e6f592",
    "decimals()": "313ce567",
    "deposit(uint256,address)": "6e553f65",
    "maxDeposit(address)": "402d267d",
    "maxMint(address)": "c63d75b6",
    "maxRedeem(address)": "d905777e",
    "maxWithdraw(address)": "ce96cb77",
    "mint(uint256,address)": "94bf804d",
    "name()": "06fdde03",
    "previewDeposit(uint256)": "ef8b30f7",
    "previewMint(uint256)": "b3d7f6b9",
    "previewRedeem(uint256)": "4cdad506",
    "previewWithdraw(uint256)": "0a28a477",
    "redeem(uint256,address,address)": "ba087652",
    "symbol()": "95d89b41",
    "totalAssets()": "01e1d114",
    "totalSupply()": "18160ddd",
    "transfer(address,uint256)": "a9059cbb",
    "transferFrom(address,address,uint256)": "23b872dd",
    "withdraw(uint256,address,address)": "b460af94"
  },
  "id": 39
}