{
  "abi": [
    {
      "inputs": [
        {
          "internalType": "address",
          "name": "token_",
          "type": "address"
        }
      ],
      "stateMutability": "nonpayable",
      "type": "constructor"
    },
    {
      "anonymous": false,
      "inputs": [
        {
          "indexed": true,
          "internalType": "address",
          "name": "user",
          "type": "address"
        },
        {
          "indexed": false,
          "internalType": "uint256",
          "name": "amount",
          "type": "uint256"
        }
      ],
      "name": "Deposited",
      "type": "event"
    },
    {
      "anonymous": false,
      "inputs": [
        {
          "indexed": true,
          "internalType": "address",
          "name": "user",
          "type": "address"
        },
        {
          "indexed": false,
          "internalType": "uint256",
          "name": "amount",
          "type": "uint256"
        }
      ],
      "name": "Withdrew",
      "type": "event"
    },
    {
      "anonymous": false,
      "inputs": [
        {
          "indexed": true,
          "internalType": "address",
          "name": "user",
          "type": "address"
        },
        {
          "indexed": false,
          "internalType": "uint256",
          "name": "amount",
          "type": "uint256"
        }
      ],
      "name": "YieldWithdrawn",
      "type": "event"
    },
    {
      "inputs": [
        {
          "internalType": "uint256",
          "name": "amount",
          "type": "uint256"
        }
      ],
      "name": "deposit",
      "outputs": [],
      "stateMutability": "nonpayable",
      "type": "function"
    },
    {
      "inputs": [],
      "name": "getDepositedAmount",
      "outputs": [
        {
          "internalType": "uint256",
          "name": "amount",
          "type": "uint256"
        }
      ],
      "stateMutability": "view",
      "type": "function"
    },
    {
      "inputs": [],
      "name": "getTotalAmount",
      "outputs": [
        {
          "internalType": "uint256",
          "name": "amount",
          "type": "uint256"
        }
      ],
      "stateMutability": "view",
      "type": "function"
    },
    {
      "inputs": [],
      "name": "getYieldAmount",
      "outputs": [
        {
          "internalType": "uint256",
          "name": "amount",
          "type": "uint256"
        }
      ],
      "stateMutability": "view",
      "type": "function"
    },
    {
      "inputs": [
        {
          "internalType": "uint256",
          "name": "amount",
          "type": "uint256"
        }
      ],
      "name": "increseYieldAmount",
      "outputs": [],
      "stateMutability": "nonpayable",
      "type": "function"
    },
    {
      "inputs": [],
      "name": "token",
      "outputs": [
        {
          "internalType": "address",
          "name": "",
          "type": "address"
        }
      ],
      "stateMutability": "view",
      "type": "function"
    },
    {
      "inputs": [
        {
          "internalType": "uint256",
          "name": "amount",
          "type": "uint256"
        }
      ],
      "name": "withdraw",
      "outputs": [],
      "stateMutability": "nonpayable",
      "type": "function"
    },
    {
      "inputs": [
        {
          "internalType": "uint256",
          "name": "amount",
          "type": "uint256"
        }
      ],
      "name": "withdrawYield",
      "outputs": [],
      "stateMutability": "nonpayable",
      "type": "function"
    }
  ],
  "bytecode": {
    "object": "0x608060405234801561001057600080fd5b5060405161054f38038061054f83398101604081905261002f91610054565b600080546001600160a01b0319166001600160a01b0392909216919091179055610084565b60006020828403121561006657600080fd5b81516001600160a01b038116811461007d57600080fd5b9392505050565b6104bc806100936000396000f3fe608060405234801561001057600080fd5b50600436106100885760003560e01c8063ab31978f1161005b578063ab31978f146100c9578063b6b55f25146100dc578063f1ecd1fa146100ef578063fc0c546a1461010257600080fd5b8063121a23c11461008d5780632e1a7d4d146100a4578063322ba9f3146100b957806365ac4341146100c1575b600080fd5b6002545b6040519081526020015b60405180910390f35b6100b76100b2366004610402565b61011d565b005b600154610091565b6100916101e3565b6100b76100d7366004610402565b610200565b6100b76100ea366004610402565b610323565b6100b76100fd366004610402565b6103e8565b6000546040516001600160a01b03909116815260200161009b565b60005460405163a9059cbb60e01b8152336004820152602481018390526001600160a01b039091169063a9059cbb906044016020604051808303816000875af115801561016e573d6000803e3d6000fd5b505050506040513d601f19601f82011682018060405250810190610192919061041b565b5080600160008282546101a5919061045a565b909155505060405181815233907fb244b9a17ad633c6e83b7983ee04320484956a68ddbe96a0b70dfca1cf19d723906020015b60405180910390a250565b60006101ee60025490565b6001546101fb9190610473565b905090565b6002548111156102645760405162461bcd60e51b815260206004820152602560248201527f455243343632365969656c645661756c743a20696e73756666696369656e74206044820152641e5a595b1960da1b606482015260840160405180910390fd5b8060026000828254610276919061045a565b909155505060005460405163a9059cbb60e01b8152336004820152602481018390526001600160a01b039091169063a9059cbb906044016020604051808303816000875af11580156102cc573d6000803e3d6000fd5b505050506040513d601f19601f820116820180604052508101906102f0919061041b565b5060405181815233907faed495d70193dd915b96156dc90595c95aa5cc4f6985a2cd79286232d96ae8e2906020016101d8565b6000546040516323b872dd60e01b8152336004820152306024820152604481018390526001600160a01b03909116906323b872dd906064016020604051808303816000875af115801561037a573d6000803e3d6000fd5b505050506040513d601f19601f8201168201806040525081019061039e919061041b565b5080600160008282546103b19190610473565b909155505060405181815233907f2da466a7b24304f47e87fa2e1e5a81b9831ce54fec19055ce277ca2f39ba42c4906020016101d8565b80600260008282546103fa9190610473565b909155505050565b60006020828403121561041457600080fd5b5035919050565b60006020828403121561042d57600080fd5b8151801515811461043d57600080fd5b9392505050565b634e487b7160e01b600052601160045260246000fd5b8181038181111561046d5761046d610444565b92915050565b8082018082111561046d5761046d61044456fea2646970667358221220f31762062f1b9820f4f3b426440e7669d8696b9b8abefc47d7d521b86271556164736f6c63430008140033",
    "linkReferences": {}
  },
  "methodIdentifiers": {
    "deposit(uint256)": "b6b55f25",
    "getDepositedAmount()": "322ba9f3",
    "getTotalAmount()": "65ac4341",
    "getYieldAmount()": "121a23c1",
    "increseYieldAmount(uint256)": "f1ecd1fa",
    "token()": "fc0c546a",
    "withdraw(uint256)": "2e1a7d4d",
    "withdrawYield(uint256)": "ab31978f"
  },
  "id": 40
}